S01100006578616D656E5F30312E73726563D5
S113000071C000008FC000008DC000008BC00000D4
S113001089C0000087C0000085C0000083C00000C4
S113002081C000007FC000007DC000007BC00000D4
S113003079C0000077C0000075C0000073C00000E4
S113004071C000006FC000006DC000006BC00000F4
S113005069C0000068C0000065C0000063C0000003
S113006061C000005FC000005DC000005BC0000014
S113007059C0000057C0000055C0000053C0000024
S113008051C000004FC000004DC000004BC0000034
S113009049C0000047C0000045C0000043C0000044
S11300A041C000003FC000003DC000003BC0000054
S11300B039C0000037C0000035C0000033C0000064
S11300C031C000002FC000002DC000002BC0000074
S11300D029C0000027C0000025C0000023C0000084
S11300E021C0000011241FBECFEFD1E2DEBFCDBF7F
S11300F000E00CBF12E0A0E0B2E0E6E5F1E100E0D0
S11301000BBF02C007900D92A63BB107D9F723E0BD
S1130110A6EBB2E001C01D92AC32B207E1F7C2D245
S11301200C94A9086DCF1F920F920FB60F92112451
S11301308F939F9380910F0390911003892B49F023
S113014080910F0390911003019790931003809373
S11301500F038091210390912203892B49F0809110
S1130160210390912203019790932203809321030A
S11301708091190390911A03892B49F080911903F6
S113018090911A03019790931A03809319039F91F6
S11301908F910F900FBE0F901F9018951AB883E09F
S11301A084B985B992E090936E0029EF27BD85BD8F
S11301B094BD289A2A982998109208038AEF90E00F
S11301C09093100380930F0385E090E090932203B3
S11301D08093210382E390E090931A0380931903A0
S11301E082E090E0909316038093150384E090E0FE
S11301F0909325038093240390931C0380931B0303
S113020010921D0381E08093200310921F0310922B
S11302101E0390D2E6E2F3E084E092E095838483C7
S113022091838083938382839C014DE050E061E05D
S113023070E082E192E013D460E070E081E090E04D
S113024018D7789408958091150390911603019717
S11302509093160380931503892BE1F484E090E0D6
S1130260909316038093150395B1892785B995B1A9
S113027082E0892785B910921F0310921E03809192
S113028017039091180390930D0380930C0381E05E
S113029080930803089580911703909118030196A1
S11302A0909318038093170395B181E0892785B94A
S11302B00895809124039091250301979093250339
S11302C080932403892BE1F484E090E09093250348
S11302D08093240395B1892785B995B182E0892754
S11302E085B9809117039091180390930D0380931F
S11302F00C0310921F0310921E0381E080930803E5
S113030008950F931F93CF93DF9382E390E090932C
S11303101A038093190380912003823009F49FC14A
S113032018F4813041F0B9C1833009F4A5C1843097
S113033009F4A8C1B2C14999B0C182E080932003F5
S1130340809111039091120301969093120380936C
S113035011038130910561F565D3817090789923FB
S113036024F401978E6F9F6F0196909314038093EA
S1130370130320912803309129034CE050E061E0FD
S113038070E080E292E06BD38091130390911403A8
S1130390892B39F481E090E090931F0380931E032E
S11303A07CC182E090E090931F0380931E0375C18B
S11303B0029709F072C180910803882309F429C1C6
S11303C081E090E043D68C01C0911703D0911803CB
S11303D0D0930A03C093090380910C0390910D03F9
S11303E0C81BD90BD695C7958DE292E09F938F9346
S11303F0DF93CF9382E392E09F938F9389E392E01C
S11304009F938F93E6E2F3E083818F9382818F93AE
S113041017D38DB79EB70A960FB6F8949EBF0FBE3A
S11304208DBFC436D10508F472C00115110531F52C
S113043061E070E081E090E01CD681E090E006D6B7
S113044022E432E03F932F939F938F9385E492E0CD
S11304509F938F9389E392E09F938F93E6E2F3E077
S113046083818F9382818F93EBD28DB79EB70A9647
S11304700FB6F8949EBF0FBE8DBFB8C081E090E068
S1130480E5D52DE232E03F932F939F938F938CE534
S113049092E09F938F9389E392E09F938F93E6E298
S11304A0F3E083818F9382818F93CAD28DB79EB7F5
S11304B00A960FB6F8949EBF0FBE8DBFC017D10722
S11304C008F094C0BE0181E090E0D3D581E090E0D3
S11304D0BDD52DE232E03F932F939F938F9387E610
S11304E092E09F938F9389E392E09F938F93E6E248
S11304F0F3E083818F9382818F93A2D28DB79EB7CD
S11305000A960FB6F8949EBF0FBE8DBF6FC001153B
S1130510110529F5BE0181E090E0ABD581E090E0C2
S113052095D52DE232E03F932F939F938F9385E4EB
S113053092E09F938F9389E392E09F938F93E6E2F7
S1130540F3E083818F9382818F937AD28DB79EB7A4
S11305500A960FB6F8949EBF0FBE8DBF47C081E0C8
S113056090E074D52DE232E03F932F939F938F93C5
S11305708CE592E09F938F9389E392E09F938F930E
S1130580E6E2F3E083818F9382818F9359D28DB712
S11305909EB70A960FB6F8949EBF0FBE8DBFC017C4
S11305A0D10720F5BE0181E090E063D581E090E0C1
S11305B04DD52DE232E03F932F939F938F9387E69F
S11305C092E09F938F9389E392E09F938F93E6E267
S11305D0F3E083818F9382818F9332D28DB79EB75C
S11305E00A960FB6F8949EBF0FBE8DBF10921803E3
S11305F01092170395B184E0892785B995B182E0FB
S1130600892785B9109212031092110310920803DE
S113061044C08DE792E09F938F9388EA92E09F9382
S11306208F93E6E2F3E083818F9382818F9308D2E4
S1130630109218031092170395B184E0892785B9A5
S113064095B182E0892785B91092120310921103A3
S11306500F900F900F900F900F900F901EC049991C
S113066007C083E08093200381E080931D0315C0BD
S113067081E08093200311C0499B0FC084E08093E4
S113068020030BC0499904C083E08093200305C074
S113069081E08093200310921D03DF91CF911F917D
S11306A00F9108957BDD80E090E0C8D4843549F053
S11306B060E070E081E090E0DCD464E580E090E00C
S11306C0CAD40AEF10E0C5E0D0E080911E039091F7
S11306D01F03019759F480910F0390911003892B04
S11306E0B1F41093100300930F03ADDD80911E034A
S11306F090911F03029759F480910F039091100376
S1130700892B29F41093100300930F03D2DD8091F9
S1130710210390912203892B29F4D0932203C093BF
S11307202103B9DD8091190390911A03892B69F68D
S1130730E8DDCBCF87E68093C40088E18093C100D5
S11307400895CF93C82F873061F420912A03309104
S11307502B0347E050E061E070E08EEA92E07FD145
S11307600BC08A3011F48DE0ECDFE0ECF0E0808126
S113077085FFFDCFC093C60080E090E0CF9108953F
S11307806F927F928F929F92AF92BF92CF92DF929D
S1130790EF92FF920F931F93CF93DF932091060361
S11307A030910703232B09F0CCC08C010F2EF6EBFC
S11307B08F2EF2E09F2EF02DC0ECD0E00F2EF6EC41
S11307C0CF2ED12CF02D54010F2EF5EB6F2EF2E02D
S11307D07F2EF02D88818823ECF7888184FDC4C0A6
S11307E0888183FDC4C0F60180818D3011F08A3088
S11307F061F48AE0F4018083B801A3DF86EB92E020
S113080090930703809306039CC0893039F090EEDF
S1130810980F9F3520F0803AA8F001C080E2F5E0FF
S11308208F16F3E09F0621F4B80187E08ADFD2CF68
S113083074019FEFE91AF90AF4018083B80181DF9A
S11308404701C8CF8231B9F130F4833009F492C042
S11308508830E9F0BFCF873129F08F37C1F0853177
S113086079F0B8CFF6EB8F16F2E09F0609F008F4A2
S1130870B1CFF40131978081803209F04AC0AACF08
S113088086EB881682E0980609F070F5A3CF96EB04
S1130890891692E0990609F008F49CCFB80188E023
S11308A050DFB80180E24DDFB80188E04ADFE1E0C3
S11308B08E1A91088FCFB8018DE043DFF6EB8F16C7
S11308C0F2E09F0609F008F485CF0F2EF6EBEF2E29
S11308D0F2E0FF2EF02DB801F70181917F0131DFA5
S11308E08E149F04C1F776CFB80188E02ADFB801DF
S11308F080E227DFB80188E024DFF1E08F1A910855
S113090086EB881682E0980679F7F30131964F0159
S113091061CF7401F1E0EF1AF108B80188E011DF4A
S1130920B80180E20EDFB80188E00BDF4701EA146A
S1130930FB0409F44FCFF70182917F01803269F7FC
S113094049CFE0910603F0910703CF0101969093FC
S113095007038093060380818A3021F410920703F1
S11309601092060390E008C08EEF9FEF05C08FEF52
S11309709FEF02C08FEF9FEFDF91CF911F910F91F7
S1130980FF90EF90DF90CF90BF90AF909F908F90AB
S11309907F906F9008958F929F92AF92BF92CF9263
S11309A0DF92EF92FF92CF93DF93EC01688179811C
S11309B08A819B81611571058105910521F464E2A9
S11309C079ED8BE597E02DE133EF41E050E064D31E
S11309D049015A019B01AC01A7EAB1E479D36B0147
S11309E07C01ACEEB4EFA50194017ED3DC01CB0114
S11309F08C0D9D1DAE1DBF1DB7FF03C00197A1093E
S1130A00B04888839983AA83BB839F77DF91CF9172
S1130A10FF90EF90DF90CF90BF90AF909F908F901A
S1130A200895B9CF80E092E0B6CFA0E0B0E0809323
S1130A30000290930102A0930202B093030208956E
S1130A40CF93DF93CDB7DEB7AE01465F5F4F6885C6
S1130A5079858E819F8145D0DF91CF9108958F92C2
S1130A609F92AF92BF92CF92DF92EF92FF920F9339
S1130A701F93CF93DF935B014A017901D901139648
S1130A802C9121FF1DC0C0E0D0E0C815D905D9F0D4
S1130A908C016C01CA0CDB1CC8010C151D0571F01E
S1130AA00F5F1F4FD7011896ED91FC911997B7016D
S1130AB0DC018C911995892B79F305C02196E5CF3A
S1130AC080E090E001C0CE01DF91CF911F910F91A2
S1130AD0FF90EF90DF90CF90BF90AF909F908F905A
S1130AE008952F923F924F925F926F927F928F92CE
S1130AF09F92AF92BF92CF92DF92EF92FF920F93A9
S1130B001F93CF93DF93CDB7DEB72B970FB6F8942F
S1130B10DEBF0FBECDBF6C017B018A01FC011782D1
S1130B201682838181FFBFC1CE0101963C01F6018B
S1130B309381F70193FD859193FF81917F01882330
S1130B4009F4ADC1853239F493FD859193FF819108
S1130B507F01853221F4B60190E0D6D1E8CF912C03
S1130B60212C312CFFE1F315D8F08B3279F038F4D5
S1130B70803279F08332A1F4232D20611DC08D329F
S1130B8061F0803369F4232D216016C0832D8260C7
S1130B90382EE32DE4603E2E2AC0F32DF8601DC0EC
S1130BA037FC2DC020ED280F2A3040F08E32B9F4E6
S1130BB036FC75C1232D2064322E19C036FE06C0C2
S1130BC08AE0989E200D1124922E11C0EAE02E9EF8
S1130BD0200D1124222EF32DF0623F2E08C08C36F6
S1130BE021F4832D8068382E02C0883641F4F70141
S1130BF093FD859193FF81917F018111B3CF982F4C
S1130C009F7D9554933028F40C5F1F4F9FE3998385
S1130C100DC0833631F0833771F0833509F055C048
S1130C2020C0F801808189830E5F1F4F882483943C
S1130C30912C530112C02801F2E04F0E511CF8010F
S1130C40A080B18036FE03C0692D70E002C06FEF52
S1130C507FEFC5014ED14C018201F32DFF773F2E6A
S1130C6015C0280122E0420E511CF801A080B18079
S1130C7036FE03C0692D70E002C06FEF7FEFC5013F
S1130C802DD14C01F32DF0683F2E820133FC19C0A5
S1130C90822D90E088169906A0F4B60180E290E0D7
S1130CA033D12A94F5CFF50137FC859137FE819134
S1130CB05F01B60190E028D121102A9421E0821A24
S1130CC091088114910479F7E1C0843611F08936D2
S1130CD039F5F80137FE07C0608171818281938103
S1130CE00C5F1F4F08C060817181072E000C880BB8
S1130CF0990B0E5F1F4FF32DFF763F2E97FF09C010
S1130D0090958095709561957F4F8F4F9F4FF068B8
S1130D103F2E2AE030E0A30133D1882E861844C048
S1130D20853731F4232D2F7EB22E2AE030E025C002
S1130D30932D997FB92E8F36C1F018F4883579F048
S1130D40AEC0803719F0883721F0A9C0E92FE061DF
S1130D50BE2EB4FE0DC0FB2DF460BF2E09C034FEC0
S1130D600AC0292F2660B22E06C028E030E005C054
S1130D7020E130E002C020E132E0F801B7FE07C014
S1130D8060817181828193810C5F1F4F06C06081F5
S1130D90718180E090E00E5F1F4FA301F1D0882E97
S1130DA08618FB2DFF773F2E36FE0DC0232D2E7F98
S1130DB0A22E891458F434FE0BC032FC09C0832DD2
S1130DC08E7EA82E05C0B82CA32C03C0B82C01C05D
S1130DD0B92CA4FE0FC0FE01E80DF11D8081803303
S1130DE021F49A2D997EA92E09C0A2FE06C0B394BF
S1130DF0B39404C08A2D867809F0B394A3FC10C080
S1130E00A0FE06C0B21480F4280C922C9B180DC0CE
S1130E10B21458F4B60180E290E076D0B394F8CFDF
S1130E20B21418F42B1802C0982C212CA4FE0FC065
S1130E30B60180E390E068D0A2FE16C0A1FC03C016
S1130E4088E790E002C088E590E0B6010CC08A2DE6
S1130E50867851F0A1FE02C08BE201C080E2A7FCBB
S1130E608DE2B60190E050D0891430F4B60180E3ED
S1130E7090E04AD09A94F8CF8A94F301E80DF11DDA
S1130E808081B60190E040D08110F6CF222009F491
S1130E904ECEB60180E290E037D02A94F7CFF60127
S1130EA08681978102C08FEF9FEF2B960FB6F8943F
S1130EB0DEBF0FBECDBFDF91CF911F910F91FF9089
S1130EC0EF90DF90CF90BF90AF909F908F907F90E6
S1130ED06F905F904F903F902F900895FC01059084
S1130EE0615070400110D8F7809590958E0F9F1F28
S1130EF00895FC016150704001900110D8F780956D
S1130F0090958E0F9F1F08950F931F93CF93DF9398
S1130F10FB01238121FD03C08FEF9FEF2CC022FF33
S1130F2016C046815781248135814217530744F402
S1130F30A081B1819D012F5F3F4F318320838C932A
S1130F40268137812F5F3F4F3783268314C08B015F
S1130F50EC01FB010084F185E02D1995892BE1F664
S1130F60D80116968D919C911797019617969C938C
S1130F708E931697CE01DF91CF911F910F91089513
S1130F80FA01AA27283051F1203181F1E8946F93B6
S1130F906E7F6E5F7F4F8F4F9F4FAF4FB1E03ED05C
S1130FA0B4E03CD0670F781F891F9A1FA11D680FFA
S1130FB0791F8A1F911DA11D6A0F711D811D911D2D
S1130FC0A11D20D009F468943F912AE0269F1124A2
S1130FD03019305D3193DEF6CF010895462F477006
S1130FE0405D4193B3E00FD0C9F7F6CF462F4F7061
S1130FF0405D4A3318F0495D31FD4052419302D0BF
S1131000A9F7EACFB4E0A695979587957795679564
S1131010BA95C9F700976105710508959B01AC0164
S11310200A2E06945795479537952795BA95C9F78B
S1131030620F731F841F951FA01D0895F999FECF99
S113104092BD81BDF89A992780B50895A8E1B0E0D2
S113105042E050E013C0262FF999FECF1FBA92BD8B
S113106081BD20BD0FB6F894FA9AF99A0FBE019685
S11310700895F1DF272FF0CFDC01CB01FC01F999B2
S1131080FECF06C0F2BDE1BDF89A319600B40D92D0
S113109041505040B8F70895052E97FB16F400947C
S11310A00FD057FD05D024D007FC02D046F408C069
S11310B050954095309521953F4F4F4F5F4F089580
S11310C090958095709561957F4F8F4F9F4F0895B0
S11310D031D0A59F900DB49F900DA49F800D911DBC
S11310E011240895B7FFF4CFF3DF821B930B089507
S11310F0A1E21A2EAA1BBB1BFD010DC0AA1FBB1F18
S1131100EE1FFF1FA217B307E407F50720F0A21B89
S1131110B30BE40BF50B661F771F881F991F1A94F6
S113112069F760957095809590959B01AC01BD0120
S1131130CF010895A29FB001B39FC001A39F700D7A
S1131140811D1124911DB29F700D811D1124911DCB
S10911500895F894FFCF9E
S1131156010000000000000300000000A103C0031A
S113116600005374617274696E672E2E2E0A0D0088
S1131176496E69636961646F21210A0D0030206D2F
S1131186730054696D652C20002573256425730A44
S11311960D0020730053617665642074696D6520C3
S11311A6696E20656570726F6D2C200042657374DC
S11311B62074696D65200053617665642074696DD9
S11311C66520696E20656570726F6D2C00457272BC
S11311D66F722121205072657373207468652062D2
S11311E67574746F6E206265666F72652E20547214
S11311F67920616761696E002573200A0D002A72E1
S1091206696E672A0A006C
S9030000FC
